:020000040800F2
:1000000000000220891200087D0400088104000815
:1000100085040008890400088D0400080000000021
:100020000000000000000000000000009104000833
:100030009504000800000000990400089D040008D1
:10004000D9120008D9120008D9120008D9120008E4
:10005000D9120008D9120008D9120008D9120008D4
:10006000D9120008D9120008D9120008D9120008C4
:10007000D9120008D9120008D9120008D9120008B4
:10008000D9120008D9120008D9120008D9120008A4
:10009000D9120008D9120008D9120008D912000894
:1000A000D9120008D9120008D9120008D912000884
:1000B000D9120008D9120008D9120008D912000874
:1000C000D9120008D9120008D9120008D912000864
:1000D000D9120008D9120008D9120008D912000854
:1000E000D9120008D912000800000000D912000837
:1000F000D9120008D9120008D9120008D912000834
:10010000D9120008D9120008D9120008D912000823
:10011000D9120008D9120008D9120008D912000813
:10012000D9120008D9120008D9120008D912000803
:10013000D9120008D9120008D9120008D9120008F3
:1001400000000000000000000000000000000000AF
:10015000D9120008D9120008D9120008D9120008D3
:10016000D9120008D9120008D9120008D9120008C3
:10017000D9120008D9120008D9120008D9120008B3
:10018000D9120008D9120008D9120008D9120008A3
:10019000D9120008D9120008D9120008D912000893
:1001A000D9120008D9120008D9120008D912000883
:1001B000D9120008D9120008D9120008D912000873
:1001C000D9120008D9120008D9120008D912000863
:1001D000D9120008D9120008D9120008D912000853
:1001E000D9120008D9120008D9120008D912000843
:1001F000D9120008D9120008D9120008D912000833
:10020000D9120008D9120008D9120008D912000822
:10021000D9120008D9120008D9120008D912000812
:10022000D9120008D9120008D912000800000000F5
:10023000D9120008D912000800000000D9120008E5
:10024000D9120008D9120008D9120008D9120008E2
:10025000D9120008D9120008D9120008D9120008D2
:10026000D9120008D9120008D9120008D9120008C2
:10027000D9120008D9120008D912000800000000A5
:10028000D9120008D9120008D91200080000000095
:0802900000000000D912000873
:1002980010B5054C237833B9044B13B10448AFF3B8
:1002A80000800123237010BD100000200000000012
:1002B8003413000808B5034B1BB103490348AFF3D7
:1002C800008008BD0000000014000020341300085E
:1002D800F0B52D4B8BB0002401252C4F4FF48051E5
:1002E8000694224605940994294ECDE90744D3F88B
:1002F800E00040F08000C3F8E000D3F8E00000F030
:10030800800001900198D3F8E00040F00200C3F8A3
:10031800E000D3F8E00000F0020002900298D3F861
:10032800E00040F00800C3F8E000D3F8E00000F077
:10033800080003900398D3F8E0002843C3F8E000CE
:100348003846D3F8E0302B400493049B00F0D6FAEB
:10035800224630464FF4704100F0D0FA4FF48053F3
:10036800384605A9CDE90535CDE9074400F0A8F9D7
:100378004FF4704305A9304608940593CDE9065417
:1003880000F09EF90BB0F0BD00440258000402587A
:10039800000C0258F0B59DB04C22002109A800F0CD
:1003A800BDFF2022002101A800F0B8FF022000F0C4
:1003B800A9FA214B0022214900921A46986940F473
:1003C800404098619B6903F440430093CB6A43F033
:1003D8000103CB62CB6A03F001030093009B93698E
:1003E8009B04FCD501224FF4A024022305210825F3
:1003F80009920A94C022002409A818933F270326CB
:100408001B94CDE91412CDE91233CDE91633CDE9A9
:10041800195400F09DFA40234FF48062042101A88A
:1004280003940495CDE90176CDE90533CDE9072399
:1004380000F0FCFD1DB0F0BD004802580004005853
:1004480008B500F08FF8FFF7A5FFFFF741FFFEE7BB
:10045800074B82B0D3F8F42042F00202C3F8F4202C
:10046800D3F8F43003F002030193019B02B0704704
:1004780000440258704700BFFEE700BFFEE700BF18
:10048800FEE700BFFEE700BF704700BF704700BF30
:10049800704700BF00F096B830B4194C0022194BD1
:1004A800D4F88810184841F47001184DC4F8881021
:1004B8001C68174944F001041C601A611C6820403C
:1004C80018609A61DA611A629A62DA621A635A6388
:1004D8009A63DA631A645A64186820F480201860F2
:1004E8001A662B681940B1F1005F02D2094B01224C
:1004F8001A60034B4FF0006230BC9A60704700BF2F
:1005080000ED00E0004402587FEDF6EA0010005CC0
:100518000000FFFF088100510F4B1B780BB9012029
:10052800704710B504464FF47A700C4AB0FBF3F3E9
:100538001068B0FBF3F000F0ABF80F2C00D808B14E
:10054800012010BD002221464FF0FF3000F066F870
:10055800034B00201C6010BD080000200000002094
:100568000C00002038B50320124C00F043F8124D5F
:1005780000F0B8FC114B0246002099699B69C1F351
:10058800032103F00F03615CE35C01F01F010C4CD5
:1005980003F01F03CA4022FA03F322602B60FFF71F
:1005A800BBFF10B10124204638BD0446FFF750FFB9
:1005B800204638BD4C1300080400002000440258AF
:1005C80000000020034A044B11681B780B44136099
:1005D800704700BF2C00002008000020014B18685D
:1005E800704700BF2C000020014B1868000C7047B2
:1005F8000010005C07490002074BCA6800F4E0607D
:1006080010B44FF6FF0422405DF8044B1043034337
:10061800CB60704700ED00E00000FA05194BDB687D
:10062800C3F3022330B4C3F107051C1D042D28BFF2
:100638000425062C19D9033B4FF0FF349C4022EACD
:1006480004024FF0FF34002804FA05F421EA0401FB
:1006580001FA03F141EA02010ADB09010A4BC9B2B6
:10066800034483F8001330BC704700221346E8E7C0
:1006780000F00F000901054BC9B20344197630BCDC
:10068800704700BF00ED00E000E100E0FCEC00E096
:100698000138B0F1807F0DD2074B0022072130B41A
:1006A800F025064C5860104684F823509A6019606B
:1006B80030BC70470120704710E000E000ED00E01A
:1006C8002DE9F04F0E6885B0002E00F0D38000238E
:1006D800DFF820A2DFF820B2B14620E0DA0803F004
:1006E800070C04F003044FF00F0E00EB82020E69B2
:1006F8004FEA8C0C04FA07F7146A0EFA0CFE06FA95
:100708000CF624EA0E0C46EA0C061662026815403E
:100718003D430560013339FA03F200F0AB80012252
:100728009A4012EA0908F5D04C685F0024F0100CD2
:100738000CF1FF35012D4FF0030500F29E80C4F344
:100748000016D0F808E0BD409E402EEA050EED43A5
:100758000196CE68BE4046EA0E0E019EC0F808E03B
:10076800D0F804E02EEA020216434660C668BCF1DF
:10077800020F8A6806EA050602FA07F242EA06024A
:10078800C260ABD0066804F003022E4002FA07F7F5
:100798003E430660E600BDD5DAF8F46023F00307AF
:1007A80003F003020F2546F0020607F1B047920056
:1007B800CAF8F46007F58067DAF8F46005FA02FC15
:1007C80006F002060396424E039DB042BD6825EA34
:1007D8000C0520D006F58066B04256D03D4EB0429A
:1007E80058D03D4EB0424BD03C4EB0425CD03C4E0F
:1007F800B0425ED03B4EB04251D03B4EB0425DD08D
:100808003A4EB0425FD03A4EB0420CBF09260A2693
:1008180006FA02F21543BD606FEA0806DBF800200D
:10082800E50303F1010354BF324048EA0202CBF862
:100838000020A203DBF804504FF0B04254BF35400B
:1008480048EA0505E702CBF8045015684FF0B042B6
:1008580054BF354048EA0505A4024FF0B04415607E
:10086800526854BF324048EA0202626039FA03F221
:100878007FF455AF05B0BDE8F08FBD40ED4375E797
:10088800032606FA02F21543C5E7012606FA02F224
:100898001543C0E7022606FA02F21543BBE706260F
:1008A80006FA02F21543B6E7042606FA02F21543E1
:1008B800B1E7052606FA02F21543ACE7072606FA61
:1008C80002F21543A7E7082606FA02F21543A2E743
:1008D8000000025800080258000C02580010025884
:1008E8000014025800180258001C02580020025830
:1008F80000240258004402588000005802B9090434
:100908008161704738B5114BDA68520706D4DB6845
:1009180003F00703181A18BF012038BDDA681D460E
:1009280022F007021043D860FFF758FE044605E09E
:10093800FFF754FE001BB0F57A7F04D86B689B0460
:10094800F6D5002038BD012038BD00BF0048025848
:10095800002800F0E381F8B503680446D9072ED5CE
:10096800AF490A69896A02F03802102A00F0228128
:10097800182A00F01A816368B3F5803F00F05D81A2
:10098800002B00F07281B3F5A02FA54B1A6800F078
:10099800628222F480321A601A6822F480221A6075
:1009A800FFF71CFE9E4E054605E0FFF717FE401BAD
:1009B800642800F2588133689F03F6D523689907A5
:1009C80030D5974A1369926A13F0380300F0B6805D
:1009D800182B00F0B080E268002A00F08B81904963
:1009E8000B680E4623F0190313430B60FFF7F6FD5F
:1009F800054605E0FFF7F2FD401B022800F23381AF
:100A080033685F07F6D5FFF7EFFD41F2030322696C
:100A18009842736800F24A8223F47C3343EA023333
:100A280073602368D90656D41D0717D56369002B50
:100A380000F09B807A4B5A6F1E4642F001025A67BB
:100A4800FFF7CCFD054605E0FFF7C8FD401B02286F
:100A580000F20981736F9807F6D523689A0617D5AF
:100A6800A369002B00F018816D4B1A681E4642F4EA
:100A780080521A60FFF7B2FD054605E0FFF7AEFDAC
:100A8800401B022800F2EF8033689F04F6D52368E4
:100A9800590700F19980606AD8B1614B1A6902F070
:100AA8003802182A00F0A9811A6802281D4622F087
:100AB80080721A6000F03C81FFF790FD044605E063
:100AC800FFF78CFD001B022800F2CD802B689B01EC
:100AD800F6D40020F8BD524A1369926A03F038032D
:100AE800082B59D0182B53D0E369002B00F0E7806E
:100AF8004B4B1A681E4642F080021A60FFF76EFDE3
:100B0800054605E0FFF76AFD401B022800F2AB80AE
:100B18003368DB05F6D5FFF767FD41F2030398421A
:100B280000F2BB817368226A23F0F84343EA8263C8
:100B38007360236878E792077FF44DAF384B1B68E2
:100B48005B0701D5E36873B3FFF74EFD41F203037A
:100B5800334A98422169536800F2C58023F47C33F4
:100B680043EA0133536023685CE72D4B5A6F1E46F6
:100B780022F001025A67FFF731FD054604E0FFF74E
:100B88002DFD401B02286ED8736F9907F7D464E7D0
:100B980002F00302012AA7D1214B1B68DA0552D5BE
:100BA800E369802B4FD00120F8BD01F00301022931
:100BB8007FF4E1AE1A4A126892037FF500AF6268CB
:100BC800002A7FF4FCAEEEE7164B1A681E4642F484
:100BD80080721A60FFF702FD054604E0FFF7FEFC8D
:100BE800401B64283FD83368DA05F7D5A368012B82
:100BF80000F06381002B00F03681052B084B1A6F3B
:100C080000F0618122F001021A671A6F22F00402D3
:100C18001A67FFF7E3FC024E41F28837054608E001
:100C28000044025800480258FFF7D8FC401BB8425D
:100C380019D8336F9B07F7D52DE7A74A136843F4F4
:100C480080331360ACE6FFF7CFFC41F20303A24AFE
:100C58009842216A64D8536823F0F84343EA8163D1
:100C680053602368E0E60320F8BD9B4B1A681E46D4
:100C780022F480321A601A6822F480221A60FFF780
:100C8800ADFC054604E0FFF7A9FC401B6428EAD840
:100C980033689803F7D491E68F4B1A681E4622F4FE
:100CA80080521A60FFF79AFC054604E0FFF796FCAD
:100CB800401B0228D7D833689804F7D4E7E6864B58
:100CC8001A681E4622F080021A60FFF787FC054664
:100CD80004E0FFF783FC401B0228C4D83368DF0513
:100CE800F7D42368A0E623F0FE4343EA0163536088
:100CF800236897E6784B1A681E4622F001021A60AC
:100D0800FFF76CFC054604E0FFF768FC401B02286F
:100D1800A9D833685807F7D4236883E601207047B9
:100D2800D36823F07C5343EA0163D36023687BE6EE
:100D3800FFF754FC064604E0FFF750FC801B02282E
:100D480091D82B689901F7D4AA6A644BA06A13401A
:100D5800E26A63490343604E43EA0213AB62276BBE
:100D6800D4E90D32013F501E013BE26BC7F308077F
:100D78005B020004013A9BB200F4FE001206034332
:100D880002F0FE423B4313432B63EB6A23F001035B
:100D9800EB626A6BA36C114041EAC3016963EB6AB9
:100DA800226C23F00C031343EB62EB6A626C23F0B2
:100DB80002031343EB62EB6A43F48033EB62EB6AA2
:100DC80043F40033EB62EB6A43F48023EB62EB6A93
:100DD80043F00103EB622B6843F080732B60FFF74D
:100DE800FDFB044605E0FFF7F9FB001B02283FF670
:100DF8003AAF33689A01F6D56BE601289A6A1D6BFB
:100E08003FF468AE02F00303A16A8B427FF4CBAED5
:100E1800C2F30512E36A9A427FF4C5AE236BC5F3A9
:100E28000802013B9A427FF4BEAE636BC5F34622CB
:100E3800013B9A427FF4B7AEA36BC5F30642013B70
:100E48009A427FF4B0AEE06BC5F306650138281A04
:100E580018BF0120F8BD42F480221A601A6842F4D3
:100E680080321A609CE51C4B41F288371A6F1E4687
:100E780022F001021A671A6F22F004021A67FFF7BC
:100E8800ADFB054605E0FFF7A9FB401BB8423FF65E
:100E9800EAAE336F9807F6D4FDE5F368226A23F0CB
:100EA8007C5343EA0263F3602368BDE523F0FE4305
:100EB80043EA026373602368B4E5074A136F43F09B
:100EC80001031367A5E642F004021A671A6F42F09D
:100ED80001021A679DE600BF004402580CFCFFFFA0
:100EE8000700FFFF494A136903F03803102B04D0A9
:100EF800182B0DD01BB146487047464870471368F9
:100F080099064CD513684448C3F3C103D8407047C9
:100F1800916A30B4946AD36A14F47C7FC4F30510E0
:100F2800556B3AD0C5F3CC0503F0010301F003017A
:100F380003FB05F3012907EE903AB8EEE77A02D0F1
:100F480002292ED0A1B307EE900A9FED345AF8EE8D
:100F5800E77AC5EE276A136BDFED315AC3F308034E
:100F680007EE903A27EE257AF8EEE77AB7EE006AB0
:100F780037EE877A37EE067A27EE267A234B1B6BF5
:100F8800C3F34623013307EE903AF8EEE76AC7EE5B
:100F9800267AFCEEE77A17EE900A30BC70471E48B6
:100FA800704707EE900A9FED1F5AF8EEE77AD0E7F0
:100FB80013689B0622D5136807EE900A1649B7EE08
:100FC800005AC3F3C100DFED166A136BF8EEE77A37
:100FD800C14027EE267AC3F3080306EE901AF8EE0E
:100FE800E65A06EE903AB8EEE66AC5EEA76A36EE1D
:100FF800077A37EE057A26EE877ABFE707EE900A7A
:101008009FED095AF8EEE77AA3E700BF00440258BB
:1010180000093D0040787D010090D0030024744A07
:101028000000003920BCBE4B0024744C002800F09E
:101038000E818D4A136803F00F038B422DE9F041AE
:1010480004460D460CD2136823F00F030B431360BC
:10105800136803F00F038B4202D00120BDE8F08132
:1010680023685F070BD5814920698A6902F07002FD
:10107800904204D98A6922F0700202438A611E07ED
:101088000BD57A496069CA6902F07002904204D9A6
:10109800CA6922F070020243CA61D8060BD57349A7
:1010A800A069CA6902F4E062904204D9CA6922F4CC
:1010B800E0620243CA6199060BD56C49E0690A6A85
:1010C80002F07002904204D90A6A22F070020243C8
:1010D8000A629A0740F1AD806448E168826902F0CB
:1010E8000F02914204D9826922F00F020A438261F9
:1010F800D80731D55D4AA168936923F470630B431F
:10110800936161681368022900F0A380032900F045
:101118009A80012900F0A38058079ED5534A41F2CE
:1011280088381369174623F007030B431361FFF749
:1011380055FA064605E0FFF751FA801B404500F2D4
:101148008C803B69626803F03803B3EBC20FF2D1BD
:101158002368990706D5E1684448826902F00F02BE
:101168008A426AD840490A6802F00F02AA420AD99C
:101178000A6822F00F022A430A600A6802F00F0286
:10118800AA427FF46AAF5A070BD5384920698A69A1
:1011980002F07002904204D28A6922F0700202437F
:1011A8008A611F070BD531496069CA6902F070026C
:1011B800904204D2CA6922F070020243CA61DE0674
:1011C8000BD52A49A069CA6902F4E062904204D2A8
:1011D800CA6922F4E0620243CA619D060BD5234A1C
:1011E800E169136A03F07003994204D2136A23F089
:1011F80070030B431362FFF775FE1C4B02461C4835
:1012080099699B69C1F303211A4D03F00F031A4C26
:10121800415CC35C01F01F01286803F01F03174DF0
:10122800CA4022FA03F32A602360BDE8F041FFF7C1
:1012380073B9DA073FF55EAF94E7826922F00F02CF
:10124800114381618EE79F013FF568AF05E70120F3
:1012580070479B033FF562AFFFE60320FEE6DE051D
:101268003FF55CAFF9E600BF002000520044025889
:101278004C1300080C00002004000020000000208F
:10128800DFF834D0002103E00C4B5B5843500431A5
:101298000B480C4B42189A42F6D30B4A02E0002343
:1012A80042F8043B094B9A42F9D3FFF7F5F800F0EE
:1012B80011F8FFF7C5F87047000002206413000812
:1012C8000000002010000020100000203000002046
:1012D800FEE7000070B50D4D0D4C641BA4100026F0
:1012E800A64209D10B4D0C4C00F020F8641BA41049
:1012F8000026A64205D170BD55F8043B9847013633
:10130800EEE755F8043B98470136F2E75C1300080E
:101318005C1300085C1300086013000802440346CD
:10132800934200D1704703F8011BF9E7F8B500BFF5
:10133800F8BC08BC9E467047F8B500BFF8BC08BCAE
:041348009E46704706
:10134C00000000000102030401020304060708095F
:04135C00BD020008C6
:0413600099020008E6
:101364000090D0030090D0030100000010000000A2
:040000050800128954
:00000001FF
